:020000040800F2
:100000000050002059170008D1050008D30500084A
:10001000D5050008D7050008D90500080000000034
:10002000000000000000000000000000DB050008E8
:10003000DD05000800000000DF050008E1050008FC
:10004000A1170008A1170008A1170008A1170008B0
:10005000A1170008A1170008A1170008A1170008A0
:10006000A1170008A1170008A1170008A117000890
:10007000A1170008A1170008A1170008A117000880
:10008000A1170008A1170008A1170008A117000870
:10009000A1170008A1170008A1170008A117000860
:1000A000A1170008A1170008A1170008A117000850
:1000B000A1170008A1170008A1170008A117000840
:1000C000A1170008A1170008A1170008A117000830
:1000D000A1170008A1170008A1170008A117000820
:1000E000A1170008A1170008A117000800000000D0
:1000F0000000000000000000000000000000000000
:0C01000000000000000000005FF808F1A3
:10010C000348044B834202D0034B03B1184770479A
:10011C000C0000200C0000200000000005480649DF
:10012C00091A891001EBD171491002D0034B03B1AC
:10013C00184770470C0000200C0000200000000045
:10014C0010B5064C237843B9FFF7DAFF044B13B113
:10015C000448AFF300800123237010BD0C00002075
:10016C0000000000A417000808B5044B1BB104499B
:10017C000448AFF30080BDE80840CFE70000000062
:10018C0010000020A417000870B50D4E0D4D761B05
:10019C00B61006D00024013455F8043B9847A6420B
:1001AC00F9D1094E094D01F0F7FA761BB61006D0BD
:1001BC000024013455F8043B9847A642F9D170BD90
:1001CC00E0170008E0170008E4170008E017000823
:1001DC00F0B4860743D0541E002A3ED0CAB2034660
:1001EC0002E014F1FF3438D303F8012B9D07F8D14A
:1001FC00032C2BD9CDB245EA05250F2C45EA054534
:10020C0016D9A4F110073F0903F1200606EB0716D7
:10021C0003F1100242E9045542E902551032B24290
:10022C00F8D104F00F040137032C03EB07130DD99D
:10023C001E462246043A032A46F8045BFAD8221FCB
:10024C0022F003020432134404F003042CB1C9B2AB
:10025C001C4403F8011B9C42FBD1F0BC70471446B4
:10026C000346C5E72DE9F04188B0002404940594B9
:10027C0006940794294B9A6942F004029A619A6990
:10028C0002F004020192019A9A6942F008029A6102
:10029C009A6902F008020292029A9A6942F01002DC
:1002AC009A619B6903F010030393039BDFF874803E
:1002BC0022464FF48041404601F0E4F9184D2246A5
:1002CC004FF4C071284601F0DDF901224FF40071A2
:1002DC00284601F0D7F94FF4804304930127059782
:1002EC0006940226079604A9404601F0DFF8802305
:1002FC00049305970694079604A9284601F0D6F8AE
:10030C004FF440730493112305930694079604A9A4
:10031C00284601F0CBF808B0BDE8F081001002408F
:10032C0000100140000C014030B58DB0202200219E
:10033C0004A8FFF74DFF0024019402940C4D4FF0DC
:10034C0080432B606C60AC60EC602C61AC61012371
:10035C0003930593099303A9284600F01FFB01940E
:10036C00029401A9284600F005FD0DB030BD00BF78
:10037C007000002030B58FB000240A940B940C94BC
:10038C000D94089409940194029403940494059494
:10039C00069407941E4D1F4B2B6040F2F3136B60B9
:1003AC00AC606523EB602C61AC61284600F0A0FAD0
:1003BC004FF480530A930AA9284600F0ECFB284618
:1003CC0000F0C1FA0894099408A9284600F0D2FC60
:1003DC0060230193029403940594224601A92846B4
:1003EC0000F066FB04220DEB0201284600F060FBD6
:1003FC00082201A9284600F05BFB0C2201A9284623
:10040C0000F056FB284600F04DF90FB030BD00BF90
:10041C00280000200004004010B590B024220021D8
:10042C0007A8FFF7D5FE00240194029403940494CA
:10043C0005940223069301230A9310230B9306A819
:10044C0000F040FD0F23019302940394049405944F
:10045C00214601A800F076FF10B010BD38B500F0B1
:10046C00E3FCFFF7D9FFFFF7FDFEFFF75DFFFFF79A
:10047C0081FF504C0021204600F00AFC042120464C
:10048C0000F006FC0821204600F002FC0C2120465E
:10049C0000F0FEFB484B1922DA631A645A639A6324
:1004AC0000251AE0444BDC63444D00224FF40071EC
:1004BC00284601F0E7F801224FF48071284601F03C
:1004CC00E1F800228021284601F0DCF801224FF4EB
:1004DC0080413B4801F0D6F825466C1C322000F0D8
:1004EC00C7FC632CDED9A4F16403632B09D9A4F1F6
:1004FC00C803632B23D9A4F59673632B3CD9002531
:10050C00EBE7C4F1C8022C4BDA632C4D00224FF4FC
:10051C000071284601F0B6F801224FF4807128468C
:10052C0001F0B0F800228021284601F0ABF801223E
:10053C004FF48041224801F0A5F82546CDE7C73D90
:10054C001D4BDD631D4D01224FF40071284601F057
:10055C0099F800224FF48071284601F093F801229B
:10056C008021284601F08EF800224FF48041144877
:10057C0001F088F82546B0E7C4F5C8720E4BDA6373
:10058C000E4D01224FF40071284601F07BF8002239
:10059C004FF48071284601F075F80122802128461D
:1005AC0001F070F800224FF48041054801F06AF820
:1005BC00254692E72800002000040040001001406E
:1005CC00000C01407047FEE7FEE7FEE7FEE77047D0
:1005DC007047704708B500F039FC08BD82B00E4B6F
:1005EC009A6942F001029A619A6902F00102009242
:1005FC00009ADA6942F08052DA61DB6903F08053C9
:10060C000193019B054A536823F0E06343F00073A8
:10061C00536002B0704700BF001002400000014060
:10062C0000B587B0002302930393049305930368EA
:10063C00B3F1804F02D007B05DF804FB03F504332F
:10064C00DA6942F00102DA61DA6902F00102009221
:10065C00009A9A6942F004029A619B6903F00403C0
:10066C000193019B06A9032341F8103D014800F0BA
:10067C001DFFE0E7000801400268094B9A4200D0D8
:10068C00704782B003F50333DA6942F00202DA6193
:10069C00DB6903F002030193019B02B0704700BFBA
:1006AC000004004010B586B000230293039304931A
:1006BC0005930268154B9A4201D006B010BD03F5A4
:1006CC0003339A6942F004029A619A6902F00402B7
:1006DC000092009A9A6942F008029A619B6903F0B1
:1006EC0008030193019BC0230293022403940594F5
:1006FC0002A9074800F0DAFE032302930394059441
:10070C0002A9044800F0D2FED7E700BF0004004065
:10071C0000080140000C014070B4036A23F001038F
:10072C000362036A4268846924F073040D6845EA25
:10073C00040623F002048B6823430D4DA84209D014
:10074C000B4DA8420DD0426086614A684263036239
:10075C0070BC704723F00803CC68234323F00403D8
:10076C00EEE722F440724C6914438A692243EAE7AB
:10077C00002C014030B4036A23F480730362036AD3
:10078C004268C46924F073040D682C4323F400738D
:10079C008D6843EA05230F4DA84209D00D4DA842A0
:1007AC000ED04260C4614A68C263036230BC7047B9
:1007BC0023F40063CD6843EA052323F48063EDE75B
:1007CC0022F440524D6942EA05128D6942EA051243
:1007DC00E7E700BF002C014030B4036A23F48053D8
:1007EC000362036A4468C26922F4E6420D6842EA75
:1007FC00052223F400538D6843EA0533074DA842C4
:10080C0006D04460C2614A680264036230BC70471F
:10081C0024F480444D6944EA8514F2E7002C01402D
:10082C0010B4036A046A24F001040462846924F09D
:10083C00F00444EA021223F00A030B4382610362C0
:10084C0010BC704710B4036A23F010030362846970
:10085C00036A24F4704444EA023223F0A00343EA0E
:10086C0001138261036210BC7047836823F070032C
:10087C00194341F0070181607047704703681B4AB8
:10088C0090420AD0B0F1804F07D0A2F5943290423A
:10089C0003D002F58062904203D123F070034A68C2
:1008AC001343124A90420AD0B0F1804F07D0A2F500
:1008BC009432904203D002F58062904203D123F42B
:1008CC004073CA68134323F080034A6913430360DF
:1008DC008B68C3620B688362044B984202D001237D
:1008EC00436170470B690363F9E700BF002C0140BB
:1008FC0038B310B5044690F83D30EBB1022384F8C0
:10090C003D30211D2068FFF7B9FF012384F84630E4
:10091C0084F83E3084F83F3084F8403084F841301D
:10092C0084F8423084F8433084F8443084F84530FD
:10093C0084F83D30002010BD80F83C30FFF79CFE61
:10094C00DCE70120704738B310B5044690F83D3011
:10095C00EBB1022384F83D30211D2068FFF78EFF98
:10096C00012384F8463084F83E3084F83F3084F814
:10097C00403084F8413084F8423084F8433084F8B5
:10098C00443084F8453084F83D30002010BD80F8A8
:10099C003C30FFF772FFDCE701207047002853D092
:1009AC00F8B504460D4690F83D30002B47D0022395
:1009BC0084F83D30214651F8042B936823F480438E
:1009CC0023F0070393602068FFF758FF21688A68BB
:1009DC008E690F6A2868104326F4407626F00306C9
:1009EC00AA68AB6942EA0323334323F47C4323F024
:1009FC00FC03EE68EA6946EA02261E432A6A1303E0
:100A0C002A6943EA0213334327F022076A686D69A7
:100A1C0042EA05123A43886021688B6123681A62A6
:100A2C00012384F8463084F83E3084F83F3084F853
:100A3C00423084F8433084F83D300020F8BD80F813
:100A4C003C30FFF7EDFDB2E70120704730B4036A8C
:100A5C0023F010030362036A4468826922F4E642BD
:100A6C000D6842EA052223F020038D6843EA051342
:100A7C000E4DA84209D00D4DA8420ED044608261A3
:100A8C004A688263036230BC704723F08003CD68F0
:100A9C0043EA051323F04003EDE724F440644D6969
:100AAC0044EA85048D6944EA8504E7E7002C01409B
:100ABC0038B590F83C30012B60D00D46044601232C
:100ACC0080F83C300C2A1AD8DFE802F00719191903
:100ADC001D1919193119191944000068FFF71CFE6A
:100AEC002268936943F0080393612268936923F0A9
:100AFC00040393612268936929690B439361002075
:100B0C0084F83C0038BD0068FFF7A0FF22689369A9
:100B1C0043F4006393612268936923F480639361C7
:100B2C0022689369296943EA01239361E7E7006826
:100B3C00FFF720FE2268D36943F00803D3612268D3
:100B4C00D36923F00403D3612268D36929690B4369
:100B5C00D361D4E70068FFF73FFE2268D36943F402
:100B6C000063D3612268D36923F48063D361226864
:100B7C00D369296943EA0123D361C0E70220C1E7A5
:100B8C0010B4846824F47F4442EA03230B432343C8
:100B9C00836010BC704790F83C30012B66D010B5C8
:100BAC000446012380F83C30022380F83D30026873
:100BBC00936823F47F4323F0770393600B68402BF7
:100BCC004AD013D9602B3DD01ED9702B28D0B3F549
:100BDC00005F30D1CB684A6889680068FFF7D0FFA6
:100BEC002268936843F48043936024E0102B06D072
:100BFC0004D9202B03D0302B01D01CE0DBB91946D3
:100C0C002068FFF732FE16E0502B14D1CA684968F1
:100C1C000068FFF705FE50212068FFF726FE0AE06A
:100C2C00CB684A6889680068FFF7AAFF2268936856
:100C3C0043F077039360012384F83D30002084F85F
:100C4C003C0010BDCA6849680068FFF7FBFD6021D5
:100C5C002068FFF70AFEEEE7CA6849680068FFF7EC
:100C6C00DFFD40212068FFF700FEE4E7022070471B
:100C7C0010B401F01F01012303FA01F4036A23EA03
:100C8C0004030362036A8A401343036210BC704777
:100C9C000A4669BB90F83E30DBB213F1FF3318BF44
:100CAC000123002B60D110B5002A3DD1022380F81E
:100CBC003E301146044601220068FFF7D9FF236835
:100CCC002B4A934240D02368294A934241D0B3F136
:100CDC00804F3ED0A2F5943293423AD002F5806216
:100CEC00934236D01A6842F001021A6000203AE0B2
:100CFC00042909D008290FD090F84130DBB213F148
:100D0C00FF3318BF0123CCE790F83F30DBB213F16F
:100D1C00FF3318BF0123C4E790F84030DBB213F166
:100D2C00FF3318BF0123BCE7042A05D0082A07D0DB
:100D3C00022380F84130BCE7022380F83F30B8E74B
:100D4C00022380F84030B4E75A6C42F400425A64F3
:100D5C00B9E79A6802F00702062A07D01A6842F02F
:100D6C0001021A60002010BD012070470020FAE734
:100D7C00002C014090F83C30012B2BD030B40123D7
:100D8C0080F83C30022380F83D3003685C689D6835
:100D9C0024F070040A6822435A6003680E4A934296
:100DAC000AD0B3F1804F07D0A2F59432934203D00E
:100DBC0002F58062934204D125F080054A68154300
:100DCC009D60012380F83D30002380F83C301846AC
:100DDC0030BC704702207047002C014010B504460F
:100DEC000E4B18784FF47A73B3FBF0F30C4A10687F
:100DFC00B0FBF3F000F092FC68B90F2C01D9012084
:100E0C000AE0002221464FF0FF3000F053FC054B66
:100E1C001C60002000E0012010BD00BF000000207D
:100E2C00080000200400002008B5074A136843F0AE
:100E3C0010031360032000F02BFC0020FFF7CEFF03
:100E4C00FFF7CCFB002008BD00200240034A1168CC
:100E5C00034B1B780B441360704700BFB800002095
:100E6C0000000020014B1868704700BFB80000203C
:100E7C0038B50446FFF7F6FF0546B4F1FF3F02D044
:100E8C00044B1B781C44FFF7EDFF401BA042FAD328
:100E9C0038BD00BF0000002082B0084B1B68084A18
:100EAC00A2FB03235B0A00FB03F0019000BF019B34
:100EBC005A1E0192002BF9D102B070470800002095
:100ECC00D34D6210002800F0F58170B582B0044655
:100EDC00036813F0010F2CD0AB4B5B6803F00C03D1
:100EEC00042B1DD0A84B5B6803F00C03082B12D00D
:100EFC006368B3F5803F41D0002B55D103F180439B
:100F0C0003F504331A6822F480321A601A6822F44A
:100F1C0080221A6037E09C4B5B6813F4803FE7D06B
:100F2C00994B1B6813F4003F03D06368002B00F04F
:100F3C00C381236813F0020F76D0934B5B6813F0D8
:100F4C000C0F5FD0904B5B6803F00C03082B54D054
:100F5C002369002B00F08A808C4B01221A60FFF76A
:100F6C0081FF0546884B1B6813F0020F75D1FFF704
:100F7C0079FF401B0228F5D90320A0E1824A1368AF
:100F8C0043F480331360636843B3FFF76BFF05468C
:100F9C007D4B1B6813F4003FCBD1FFF763FF401B65
:100FAC006428F5D903208AE1B3F5A02F09D0764B3C
:100FBC001A6822F480321A601A6822F480221A60AD
:100FCC00E1E703F18043A3F53C331A6842F4802235
:100FDC001A601A6842F480321A60D4E7FFF742FFB5
:100FEC000546694B1B6813F4003FA2D0FFF73AFF8C
:100FFC00401B6428F5D9032061E1634B5B6813F453
:10100C00803FA5D1604B1B6813F0020F04D02369FD
:10101C00012B01D0012052E15B4A136823F0F80345
:10102C00616943EAC1031360236813F0080F32D0DF
:10103C00A369002B5BD0564B01221A60FFF712FFFD
:10104C000546514B5B6A13F0020F21D1FFF70AFFE3
:10105C00401B0228F5D9032031E14B4A136823F0D9
:10106C00F803616943EAC1031360DDE7474B0022D3
:10107C001A60FFF7F7FE0546434B1B6813F0020F8F
:10108C00D2D0FFF7EFFE401B0228F5D9032016E162
:10109C000120FFF701FF236813F0040F00F0988084
:1010AC00394BDB6913F0805F33D1374BDA6942F08F
:1010BC008052DA61DB6903F080530193019B0125B7
:1010CC00344B1B6813F4807F25D0E368012B36D09A
:1010DC00002B4CD103F1804303F504331A6A22F040
:1010EC0001021A621A6A22F004021A622CE0284BDE
:1010FC0000221A60FFF7B6FE0546234B5B6A13F01D
:10110C00020FC8D0FFF7AEFE401B0228F5D9032012
:10111C00D5E00025D4E71F4A136843F480731360AD
:10112C00FFF7A0FE06461B4B1B6813F4807FCCD147
:10113C00FFF798FE801B6428F5D90320BFE0124A04
:10114C00136A43F001031362E3687BB3FFF78AFE73
:10115C0006460D4B1B6A13F0020F38D1FFF782FEC7
:10116C00801B41F288339842F3D90320A7E0052B6A
:10117C0012D0054B1A6A22F001021A621A6A22F086
:10118C0004021A62E0E700BF001002400000424275
:10119C0080044242007000404C4B1A6A42F0040238
:1011AC001A621A6A42F001021A62CDE7FFF75AFE80
:1011BC000646464B1B6A13F0020F08D0FFF752FE8F
:1011CC00801B41F288339842F3D9032077E0E5B9CC
:1011DC00E369002B72D03D4A526802F00C02082AD7
:1011EC0056D0022B17D03A4B00221A60FFF73AFE6A
:1011FC000446364B1B6813F0007F47D0FFF732FED6
:10120C00001B0228F5D9032059E0304AD36923F09A
:10121C008053D361DCE72E4B00221A60FFF722FECD
:10122C0005462A4B1B6813F0007F06D0FFF71AFE09
:10123C00401B0228F5D9032041E0236AB3F5803F17
:10124C001AD022494B6823F47413226A606A024351
:10125C0013434B601E4B01221A60FFF703FE04463A
:10126C001A4B1B6813F0007F0ED1FFF7FBFD001B20
:10127C000228F5D9032022E0144A536823F40033E2
:10128C00A1680B435360DCE7002018E0002016E057
:10129C00012B16D00D4B5B6803F48031226A91420E
:1012AC0001D001200BE003F47013626A93420AD060
:1012BC00012004E001207047012000E0002002B072
:1012CC0070BD0120FBE70020F9E700BF00100240D1
:1012DC006000424210B487B0164C94E80F000DF138
:1012EC00180C0CE90F00238AADF80430124B5B6824
:1012FC0003F00C02082A1AD1C3F38342624412F899
:10130C00102C13F4803F05D10C4800FB02F007B001
:10131C0010BC7047084B5B68C3F34043634413F83D
:10132C00143C074800FB02F0B0FBF3F0EFE7044875
:10133C00EDE700BFBC1700080010024000093D009B
:10134C0000127A00002800F0A38070B50446524BBE
:10135C001B6803F007038B420CD24F4A136823F02F
:10136C0007030B431360136803F007038B4201D090
:10137C00012070BD236813F0020F17D013F0040F77
:10138C0004D0464A536843F4E0635360236813F077
:10139C00080F04D0414A536843F4605353603F4AEA
:1013AC00536823F0F003A068034353600D46236891
:1013BC0013F0010F31D06368012B20D0022B25D004
:1013CC00364A126812F0020F64D034494A6822F08F
:1013DC00030213434B60FFF745FD06462F4B5B683A
:1013EC0003F00C036268B3EB820F16D0FFF73AFDE3
:1013FC00801B41F288339842F0D90320B9E7274A81
:10140C00126812F4003FE0D10120B2E7234A1268BF
:10141C0012F0007FD9D10120ABE71F4B1B6803F002
:10142C000703AB420CD91C4A136823F007032B4368
:10143C001360136803F00703AB4201D0012098E757
:10144C00236813F0040F06D0144A536823F4E063A6
:10145C00E1680B435360236813F0080F07D00F4A61
:10146C00536823F46053216943EAC1035360FFF7C7
:10147C0031FF0A4B5B68C3F30313094AD35CD840B2
:10148C00084B1860084B1868FFF7A8FC002070E7A1
:10149C000120704701206CE7002002400010024040
:1014AC00D01700080800002004000020F0B482B01F
:1014BC0000263246A2E0002D5AD0012D00D1CE6874
:1014CC00FF2B69D88446FF2B69D89500DCF80040C7
:1014DC000F27AF4024EA070406FA05F52C43CCF895
:1014EC0000404C6814F0805F00F087805F4CA56969
:1014FC0045F00105A561A46904F001040194019C67
:10150C009508AF1C5A4C54F8274002F00307BF0053
:10151C004FF00F0C0CFA07FC24EA0C0C554CA042B3
:10152C0043D004F58064A04200F0818004F580640F
:10153C00A0427ED004F58064A04234D0042435E06F
:10154C004D4FBD4214D00BD94C4FBD4210D007F5B6
:10155C008037BD420CD0A7F58017BD42B0D107E053
:10156C00A7F58017BD4203D007F58037BD42A7D140
:10157C008D687DB1012D08D044610826A0E7CE68A6
:10158C0008369DE7CE680C369AE70461082697E783
:10159C00002695E7042693E700F1040C93E7A2F1EB
:1015AC000805AD0092E7032400E00024BC4044EAA7
:1015BC000C0402352E4F47F825404C6814F4803F3C
:1015CC0039D02F4D2C681C432C604C6814F4003F10
:1015DC0037D02B4D6C681C436C604C6814F4801F26
:1015EC0035D0274DAC681C43AC604C6814F4001F1C
:1015FC0033D0234DEC682343EB6001320B6833FA94
:10160C0002F430D00124944023409C42F5D14D6823
:10161C00122DB7D094D8022DB1D07FF64CAF032D3C
:10162C00B6D0112D7FF44CAFCE68043648E70124B8
:10163C00BCE70224BAE7124D2C6824EA03042C60A0
:10164C00C3E70F4D6C6824EA03046C60C5E70C4DCE
:10165C00AC6824EA0304AC60C7E7094DEC6824EAE3
:10166C000303EB60C9E702B0F0BC70470010024006
:10167C000000014000080140000021100000311062
:10168C000004014012B909040161704701617047FF
:10169C00074AD36823F4E0631B041B0C000200F41C
:1016AC00E060184340F0BF6040F40030D0607047F9
:1016BC0000ED00E030B4174BDB68C3F30223C3F139
:1016CC000704042C28BF04241D1D062D18D9033B28
:1016DC004FF0FF3505FA04F421EA0401994005FAAC
:1016EC0003F322EA0303194300280BDB0901C9B2F7
:1016FC0000F1604000F5614080F8001330BC704789
:10170C000023E5E700F00F000901C9B2024B1954A0
:10171C00F4E700BF00ED00E014ED00E00138B0F19B
:10172C00807F0AD2064B5860064AF02182F82310BB
:10173C000020986007221A6070470120704700BF94
:10174C0010E000E000ED00E070470000002103E035
:10175C000B4B5B58435004310A480B4B42189A42CE
:10176C00F6D30A4A02E0002342F8043B084B9A42A3
:10177C00F9D3FFF7E9FFFEF707FDFEF76FFE7047A1
:10178C00E8170008000000200C0000200C000020CE
:10179C00BC000020FEE70000F8B500BFF8BC08BC98
:1017AC009E467047F8B500BFF8BC08BC9E46704713
:1017BC0002030405060708090A0B0C0D0E0F101086
:1017CC000102000000000000000000000102030400
:0417DC0006070809EB
:0417E0007501000887
:0417E4004D010008AB
:0C17E80001000000100000000024F400CC
:04000005080017597F
:00000001FF
